S01D0000616D6133626576625F756172745F6578616D706C652E73726563A0
S113C0000804001091C3000011C4000015C400000E
S113C01019C400001DC4000021C400000000000079
S113C02000000000000000000000000025C4000023
S113C03029C40000000000002DC4000031C4000029
S113C04035C4000039C400003DC4000041C40000F0
S113C05045C4000049C400004DC4000051C40000A0
S113C06055C4000059C400005DC4000061C4000050
S113C07065C4000069C400006DC4000071C4000000
S113C08075C4000079C400007DC4000081C40000B0
S113C09085C40000B1C4000089C400008DC4000040
S113C0A091C4000095C4000099C400009DC4000020
S113C0B0A1C40000A5C40000A9C40000ADC40000D0
S113C0C038B504000D006C48006850F080006A49DF
S113C0D008606A480068C0F38000002801D100BFEE
S113C0E0F7E700202063206B50F008002063012054
S113C0F0216B60F306112163206B4008400020632C
S113C100206B30F400702063206B30F48070206367
S113C11000F0C4F85A4A2900200000F01BF800205F
S113C120E062E06A50F06000E062E06A30F008002B
S113C130E062E06A30F00200E062206B50F001003F
S113C1402063206B50F400702063206B50F48070E7
S113C150206331BD2DE9F0430E01B646B2FBFEF675
S113C1603300402606FB02F6B6FBFEF60027B04677
S113C170B946402606FB03F60027B8EB060679EB22
S113C180070734003D00A446002B00D1FEE74362BC
S113C1904362C0F828C0BDE8F0838269C2F340124C
S113C1A0002A01D000BFF8E7C9B20160704738B572
S113C1B004000D002878002805D029782000FFF716
S113C1C0ECFF6D1CF6E731BD01008A69C2F3001271
S113C1D0002A01D000BFF8E70A681000C0B2704717
S113C1E010B55FF4E1312748FFF76AFF7320264951
S113C1F008602648006830F4601024490860234829
S113C200006850F400302149086001202049096881
S113C21060F35A611E4801601C48006830F06050A9
S113C2201A4908601948006850F0007017490860FE
S113C2301748006830F0C0401549086000201249D2
S113C24008600CA10F48FFF7B2FF12490D48FFF731
S113C250AEFF11490B48FFF7AAFF0A48FFF7B4FFE6
S113C2600400E4B2002CF8D02100C9B20548FFF75D
S113C27094FFF2E70D0A0000081002401810024073
S113C28000366E0100C0014060000140140001400E
S113C29048000140F4C3000070C300000D480E497B
S113C2A0096811F00101491C90FBF1F00B49086089
S113C2B0704708480949086047200949086006484A
S113C2C000684008400004490860002004490860F0
S113C2D070470000006CDC021840004000000010B1
S113C2E01440004010B450F8041B79B1026843684C
S113C2F012180830DC0744BFA9F10104E31852F80E
S113C300044B43F8044B091FF9D1ECE710BC704708
S113C31010B5074979441831064C7C44163404E0BE
S113C3200A68081D511888470146A142F8D110BD7A
S113C3302C0000003C0000004EF68851CEF20001B3
S113C340086840F470000860BFF34F8FBFF36F8F2D
S113C3504FF00070E1EE100A7047000089FFFFFF04
S113C3600400000050010000000000100000000064
S113C370547970656420746578742077696C6C20D6
S113C3806265206563686F65642E2E2E0D0A0000B9
S113C390DFF81000016841F4700101600248804731
S113C3A00248004788ED00E0B3C2000005C4000065
S113C3B000F00BF8002801D0FFF7AAFF0020C046C8
S113C3C0C046FFF70DFF00F002F80120704700F0AF
S113C3D001B800000746384600F002F8FBE7000009
S113C3E080B5C046C046024A11001820ABBEFBE728
S113C3F02600020048656C6C6F20576F726C6421D4
S113C4000D0A0000C046C046FFF796FFFFF7D0FFB5
S113C410FFF7FEBFFFF7FEBFFFF7FEBFFFF7FEBF4C
S113C420FFF7FEBFFFF7FEBFFFF7FEBFFFF7FEBF3C
S113C430FFF7FEBFFFF7FEBFFFF7FEBFFFF7FEBF2C
S113C440FFF7FEBFFFF7FEBFFFF7FEBFFFF7FEBF1C
S113C450FFF7FEBFFFF7FEBFFFF7FEBFFFF7FEBF0C
S113C460FFF7FEBFFFF7FEBFFFF7FEBFFFF7FEBFFC
S113C470FFF7FEBFFFF7FEBFFFF7FEBFFFF7FEBFEC
S113C480FFF7FEBFFFF7FEBFFFF7FEBFFFF7FEBFDC
S113C490FFF7FEBFFFF7FEBFFFF7FEBFFFF7FEBFCC
S113C4A0FFF7FEBFFFF7FEBFFFF7FEBFFFF7FEBFBC
S10BC4B0FFF7FEBF006CDC0283
S903C40533
