:020000040000FA
:10C00000700C0010F9C3000021C4000023C400001C
:10C0100025C4000027C4000029C40000000000005F
:10C020000000000000000000000000002BC4000021
:10C030002DC40000000000002FC40000C1C100009A
:10C0400033C4000033C4000033C4000033C4000014
:10C0500033C4000033C4000033C4000033C4000004
:10C0600033C4000033C4000033C4000033C40000F4
:10C0700033C40000CDC1000033C4000033C400004D
:10C0800033C4000033C4000033C4000033C40000D4
:10C0900033C4000033C4000033C4000033C40000C4
:10C0A00033C4000033C4000033C4000033C40000B4
:10C0B00033C4000033C4000033C4000033C40000A4
:10C0C00000F002F800F03CF80AA090E8000C82446E
:10C0D0008344AAF10107DA4501D100F031F8AFF24B
:10C0E000090EBAE80F0013F0010F18BFFB1A43F056
:10C0F00001031847F803000018040000103A24BF99
:10C1000078C878C1FAD8520724BF30C830C144BFBC
:10C1100004680C60704700000023002400250026FE
:10C12000103A28BF78C1FBD8520728BF30C148BF9A
:10C130000B6070471FB500F0D4F91FBD10B510BDDE
:10C1400000F095F91146FFF7F5FF00F05DF800F0FB
:10C15000B3F903B4FFF7F2FF03BC00F0BBF9000032
:10C160004FF04020806900F00100401C0A4991FB1B
:10C17000F0F00A49086070470748084908604720FE
:10C180004FF0402148610846806920F00100886135
:10C190000020486170470000006CDC0200000010C5
:10C1A00010B5002807DA4A07140E874A00F00F037B
:10C1B0001B1FD45403E04A07130E844A135410BDC6
:10C1C00083480068401C824908607047814A1068B3
:10C1D000814AD2F8141200F4803212B101227F4B4E
:10C1E0001A7000F4802212B101227D4B1A7000F403
:10C1F000002212B101227B4B1A70764A121D106088
:10C20000754AC2F8181270474FF4FA75FFF7A8FF85
:10C21000754800686900B0FBF1F4601EB0F1807FE2
:10C2200000D30FE0601E4FF0E021486107214FF07E
:10C23000FF30FFF7B5FF00204FF0E02188610720B5
:10C24000086100BF7320644908660846006920F051
:10C250000200801C08610846006920F4003000F5E7
:10C26000003008610846006920F0007000F100709D
:10C2700008610846806C20F0080008308864084691
:10C28000806C20F4006000F5006088640846806CD3
:10C2900020F4004000F5004088644E48001F00680C
:10C2A00040F45020C1F800020846806C20F0600085
:10C2B000203088640846406C20F0C06000F10070B7
:10C2C00048640846406C20F0C04000F100504864CB
:10C2D0000846C06C20F0C06000F10070C8640846D9
:10C2E000406C20F4C06000F50070486400200866CF
:10C2F0004FF450203749091D08600D20012181406D
:10C300003A4A430942F8231000BF00BF012181408F
:10C31000374A430942F8231000BF00BF0121814082
:10C320004209920002F1E022C2F8001100BF01218F
:10C33000FFF736FF46E02A480078012804D14FF481
:10C340007A7500202649087026480078012803D114
:10C35000C8250020234908702048007801280AD108
:10C360002448007808B9012000E000202149087025
:10C3700000201A4908701F48007818B36800144953
:10C380000968B1FBF0F200FB121050B94FF42130F4
:10C390001149983108604FF040200F49C1F89000D2
:10C3A00010E00B480068B0FBF5F105FB110048B93F
:10C3B0004FF421300849903108604FF04020064981
:10C3C000C1F89800B7E7000018ED00E000E400E0D5
:10C3D00004000010040201400000014008000010A9
:10C3E000090000100A0000100000001080E100E0C9
:10C3F00080E200E00B000010DFF84400002805D0C8
:10C40000DFF840100840DFF840100860DFF83C001B
:10C41000016841F4700101600D4880470D480047F4
:10C42000FEE7FEE7FEE7FEE7FEE7FEE7FEE7FEE7E4
:10C43000FEE7FEE708480949094A0A4B7047000031
:10C4400000C0000080FFFF1F08ED00E088ED00E065
:10C4500079C10000C1C0000070000010700C001015
:10C4600070080010700800107047704770477546DC
:10C4700000F02CF8AE4605006946534620F0070050
:10C48000854618B020B5FFF7D5FFBDE820404FF036
:10C4900000064FF000074FF000084FF0000B21F0AE
:10C4A0000701AC46ACE8C009ACE8C009ACE8C0097B
:10C4B000ACE8C0098D46704710B50446AFF3008064
:10C4C0002046BDE81040FFF744BE0000004870471A
:10C4D0000C00001001491820ABBEFEE72600020048
:10C4E00070474FF04070E1EE100A70470CC5000035
:10C4F000000000100C000000FCC0000018C5000087
:10C500000C000010640C000018C10000006CDC027C
:08C51000000000000000000122
:040000050000C0C176
:00000001FF
