S0210000616D61336576625F666173745F6770696F5F6578616D706C652E73726563FE
S113C0000804001025C2000099C200009DC200006F
S113C010A1C20000A5C20000A9C2000000000000E7
S113C020000000000000000000000000ADC200009D
S113C030B1C2000000000000B5C20000B9C2000097
S113C040BDC20000C1C20000C5C20000C9C20000D8
S113C050CDC20000D1C20000D5C20000D9C2000088
S113C060DDC20000E1C20000E5C20000E9C2000038
S113C070EDC20000F1C20000F5C20000F9C20000E8
S113C080FDC2000001C3000005C3000009C3000095
S113C0900DC3000039C3000011C3000015C3000024
S113C0A019C300001DC3000021C3000025C3000004
S113C0B029C300002DC3000031C3000035C30000B4
S113C0C02148016831F44071016020490160002079
S113C0D0704780B5FFF7F4FF1D48732101601D49C7
S113C0E00A6852F431320A601B490A6852F4313248
S113C0F00A601A4901220B6862F346130B6018495F
S113C10001220B6862F35A630B6001220B6862F32D
S113C1105E730B6001220B6862F34A230B600021FB
S113C12001601048022101605FF4003101600222C5
S113C130026001600222026001600222026001606A
S113C140022202600160ECE70080014083071000D6
S113C15060000140B4000140A800014048000140D3
S113C1604400014004100140074809490860094897
S113C1704721016005490A68520852000A600021FB
S113C1800160704700000000006CDC0218400040B1
S113C190000000101440004030B450F8041B79B182
S113C1A00268436802440830DC0744BFA9F1010473
S113C1B0E31852F8045B43F8045B091FF9D1ECE778
S113C1C030BC704710B5074979441831064C7C449B
S113C1D0163404E00A68081D114488470146A14248
S113C1E0F8D110BD2C0000003C0000004EF6885130
S113C1F0CEF20001086840F470000860BFF34F8F6E
S113C200BFF36F8F4FF00070E1EE100A704700002B
S113C21089FFFFFF0400000024010000000000105B
S113C22000000000DFF81000016841F470010160B3
S113C230024880470248004788ED00E069C10000D9
S113C2408DC2000000F00DF8002801D0FFF7BAFFFE
S113C250AFF300800020AFF30080FFF73AFF00F057
S113C26002F80120704700F001B800000746384684
S113C27000F002F8FBE7000080B5AFF30080024A4B
S113C28011001820ABBEFBE726000200AFF30080CC
S113C290FFF7ACFFFFF7D6FFFFF7FEBFFFF7FEBFC8
S113C2A0FFF7FEBFFFF7FEBFFFF7FEBFFFF7FEBFBE
S113C2B0FFF7FEBFFFF7FEBFFFF7FEBFFFF7FEBFAE
S113C2C0FFF7FEBFFFF7FEBFFFF7FEBFFFF7FEBF9E
S113C2D0FFF7FEBFFFF7FEBFFFF7FEBFFFF7FEBF8E
S113C2E0FFF7FEBFFFF7FEBFFFF7FEBFFFF7FEBF7E
S113C2F0FFF7FEBFFFF7FEBFFFF7FEBFFFF7FEBF6E
S113C300FFF7FEBFFFF7FEBFFFF7FEBFFFF7FEBF5D
S113C310FFF7FEBFFFF7FEBFFFF7FEBFFFF7FEBF4D
S113C320FFF7FEBFFFF7FEBFFFF7FEBFFFF7FEBF3D
S113C330FFF7FEBFFFF7FEBFFFF7FEBF006CDC0296
S903C28DAD
