:020000040000FA
:10C00000680C001085C30000ADC30000AFC3000082
:10C01000B1C30000B3C30000B5C3000000000000BE
:10C02000000000000000000000000000B7C3000096
:10C03000B9C3000000000000BBC30000BDC3000086
:10C04000BFC30000BFC30000BFC30000BFC30000E8
:10C05000BFC30000BFC30000BFC30000BFC30000D8
:10C06000BFC30000BFC30000BFC30000BFC30000C8
:10C07000BFC30000BFC30000BFC30000BFC30000B8
:10C08000BFC30000BFC30000BFC30000BFC30000A8
:10C09000BFC30000BFC30000BFC30000BFC3000098
:10C0A000BFC30000BFC30000BFC30000BFC3000088
:10C0B000BFC30000BFC30000BFC30000BFC3000078
:10C0C00000F002F800F03CF80AA090E8000C82446E
:10C0D0008344AAF10107DA4501D100F031F8AFF24B
:10C0E000090EBAE80F0013F0010F18BFFB1A43F056
:10C0F0000103184784030000A4030000103A24BF82
:10C1000078C878C1FAD8520724BF30C830C144BFBC
:10C1100004680C60704700000023002400250026FE
:10C12000103A28BF78C1FBD8520728BF30C148BF9A
:10C130000B6070471FB500F09AF91FBD10B510BD18
:10C1400000F05BF91146FFF7F5FF00F0B4F800F0DE
:10C1500079F903B4FFF7F2FF03BC00F081F90000A6
:10C160004FF04020806900F00100401C0A4991FB1B
:10C17000F0F00A49086070470748084908604720FE
:10C180004FF0402148610846806920F00100886135
:10C190000020486170470000006CDC0200000010C5
:10C1A0002DE9A0470F464FEA071CB2FBFCF14FEA0E
:10C1B0008219B9FBFCF54FEA8119B5EB09039846E2
:10C1C00009B900BFFEE741624162C0F82880BDE8BE
:10C1D000A08770B504460D465948806840F080003D
:10C1E0005749886000E000BF55488069C0F380006F
:10C1F0000028F8D000202063206B20F008000830D1
:10C200002063206B20F0700010302063206B20F042
:10C2100001002063206B20F400702063206B20F469
:10C2200080702063FFF79CFF464A29462046FFF7AF
:10C23000B7FF0020E062E06A20F060006030E0625A
:10C24000E06A20F00800E062E06A20F00200E062AC
:10C25000206B20F00100401C2063206B20F4007054
:10C2600000F500702063206B20F4807000F5807072
:10C27000206370BD00E000BF8269C2F34012002A53
:10C28000F9D10160704710B504460B4604E013F87D
:10C29000011B2046FFF7EEFF18780028F7D110BDEC
:10C2A000014600E000BF8A69C2F30012002AF9D1FA
:10C2B0000A68D0B270474FF4E1312348FFF789FF95
:10C2C0007320224908660846406920F460104861DE
:10C2D0000846406920F4003000F500304861084607
:10C2E000806C20F0C06000F10070886408464069EE
:10C2F00020F0605048610846406920F0007000F16D
:10C30000007048610846806C20F0C04088640020BE
:10C3100008660FA10C48FFF7B6FF0EA10A48FFF709
:10C32000B2FF10A10848FFF7AEFF08E00648FFF78C
:10C33000B7FF04461CB121460348FFF79BFFF5E712
:10C340000010024000366E0100C0014000000140B4
:10C350000D0A000048656C6C6F20576F726C642189
:10C360000D0A000054797065642074657874207734
:10C37000696C6C206265206563686F65642E2E2E83
:10C380000D0A0000DFF84400002805D0DFF8401057
:10C390000840DFF840100860DFF83C00016841F415
:10C3A000700101600D4880470D480047FEE7FEE739
:10C3B000FEE7FEE7FEE7FEE7FEE7FEE7FEE7FEE755
:10C3C00008480949094A0A4B7047000000C00000AC
:10C3D00080FFFF1F08ED00E088ED00E079C100005C
:10C3E000C1C0000068000010680C00106808001050
:10C3F00068080010704770477047754600F02CF8C9
:10C40000AE4605006946534620F00700854618B041
:10C4100020B5FFF7D5FFBDE820404FF000064FF0F4
:10C4200000074FF000084FF0000B21F00701AC4669
:10C43000ACE8C009ACE8C009ACE8C009ACE8C00988
:10C440008D46704710B50446AFF300802046BDE826
:10C450001040FFF77EBE0000004870470400001047
:10C4600001491820ABBEFEE72600020070474FF0DE
:10C470004070E1EE100A704798C400000000001000
:10C4800004000000FCC000009CC400000400001078
:0CC49000640C000018C10000006CDC020D
:040000050000C0C176
:00000001FF
