S01D0000616D6133626576625F6770696F5F6578616D706C652E73726563AD
S113C000080400102DC300009DC30000A1C300005C
S113C010A5C30000A9C30000ADC3000000000000D8
S113C020000000000000000000000000B1C3000098
S113C030B5C3000000000000B9C3000017C1000030
S113C040BDC30000C1C30000C5C30000C9C30000D4
S113C050CDC30000D1C30000D5C30000D9C3000084
S113C060DDC30000E1C30000E5C30000E9C3000034
S113C070EDC30000F1C30000F5C30000F9C30000E4
S113C080FDC3000001C4000005C4000009C4000091
S113C0900DC4000039C4000011C4000015C4000020
S113C0A019C400001DC4000021C4000025C4000000
S113C0B029C400002DC4000031C4000035C40000B0
S113C0C010B440B2002808D54A01544B40B210F0D5
S113C0D00F04E31803F8042C03E04A01504B40B268
S113C0E0C25410BC704710B50400601EB0F1807FCC
S113C0F001D301200EE0601E4A49086007215FF069
S113C100FF30FFF7DDFF002047490860072047495B
S113C1100860002010BD46480068401C444908607F
S113C120704710B54FF4FA7400F096F8414800686F
S113C1304FF47A71B0FBF1F0FFF7D5FF73203E495D
S113C14008603E48006850F002003C4908603B48E3
S113C150006850F40030394908603848006850F0ED
S113C16000703649086001203549096860F34611BA
S113C1703348016001203349096860F35A6131484A
S113C180016001202F49096860F35E712D48016048
S113C19001202D49096860F35A612B480160012090
S113C1A02849096860F34A21264801600020224991
S113C1B0086026480068400302D44FF47A700400F3
S113C1C022480068000301D4C82004001F48006806
S113C1D0C003EED5164800686100B0FBF1F201FB24
S113C1E01200002808D15FF42130194908605FF07B
S113C1F0402018490860DCE70D480068B0FBF4F102
S113C20004FB11000028D4D15FF4213011490860E7
S113C2105FF040200E490860CBE7000018ED00E015
S113C22000E400E014E000E018E000E010E000E0CA
S113C23004000010000000106000014010000140E4
S113C24048000140440001404C000140800001408E
S113C25098000140900001400D480E49096811F012
S113C2600101491C90FBF1F00B4908607047084834
S113C27009490860472009490860064800684008E1
S113C2804000044908600020044908607047000029
S113C290006CDC0218400040000000101440004014
S113C2A010B450F8041B79B10268436812180830BE
S113C2B0DC0744BFA9F10104E31852F8044B43F826
S113C2C0044B091FF9D1ECE710BC704710B50749BE
S113C2D079441831064C7C44163404E00A68081D7D
S113C2E0511888470146A142F8D110BD2C00000026
S113C2F03C0000004EF68851CEF20001086840F47C
S113C30070000860BFF34F8FBFF36F8F4FF0007062
S113C310E1EE100A7047000089FFFFFF08000000EB
S113C3201C0100000000001000000000DFF81000F5
S113C330016841F4700101600248804702480047E7
S113C34088ED00E06FC2000091C3000000F00BF81C
S113C350002801D0FFF7BAFF0020C046C046FFF70F
S113C360E0FE00F002F80120704700F001B8000080
S113C3700746384600F002F8FBE7000080B5C046E7
S113C380C046024A11001820ABBEFBE7260002009B
S113C390C046C046FFF7AEFFFFF7D8FFFFF7FEBF6A
S113C3A0FFF7FEBFFFF7FEBFFFF7FEBFFFF7FEBFBD
S113C3B0FFF7FEBFFFF7FEBFFFF7FEBFFFF7FEBFAD
S113C3C0FFF7FEBFFFF7FEBFFFF7FEBFFFF7FEBF9D
S113C3D0FFF7FEBFFFF7FEBFFFF7FEBFFFF7FEBF8D
S113C3E0FFF7FEBFFFF7FEBFFFF7FEBFFFF7FEBF7D
S113C3F0FFF7FEBFFFF7FEBFFFF7FEBFFFF7FEBF6D
S113C400FFF7FEBFFFF7FEBFFFF7FEBFFFF7FEBF5C
S113C410FFF7FEBFFFF7FEBFFFF7FEBFFFF7FEBF4C
S113C420FFF7FEBFFFF7FEBFFFF7FEBFFFF7FEBF3C
S113C430FFF7FEBFFFF7FEBFFFF7FEBF006CDC0295
S107C44000000000F4
S903C391A8
