S0210000616D6133626576625F6770696F5F6972715F6578616D706C652E73726563FE
S113C0001004001045C40000B5C40000B9C4000009
S113C010BDC40000C1C40000C5C40000000000008D
S113C020000000000000000000000000C9C400007F
S113C030CDC4000000000000D1C4000053C10000C2
S113C040D5C40000D9C40000DDC40000E1C4000070
S113C050E5C40000E9C40000EDC40000F1C4000020
S113C060F5C40000F9C40000FDC4000001C50000CF
S113C07005C500005FC1000009C500000DC5000032
S113C08011C5000015C5000019C500001DC500003C
S113C09021C500004DC5000025C5000029C50000CC
S113C0A02DC5000031C5000035C5000039C50000AC
S113C0B03DC5000041C5000045C5000049C500005C
S113C0C0012110F01F0291408F4A40B2430942F807
S113C0D023107047012110F01F0291408B4A40B297
S113C0E0430942F823107047012110F01F029140C8
S113C0F0874A40B2430942F82310704710B440B253
S113C100002808D54A01834B40B210F00F04E3180D
S113C11003F8042C03E04A017F4B40B2C25410BC24
S113C120704710B50400601EB0F1807F01D3012078
S113C1300EE0601E7949086007215FF0FF30FFF7C9
S113C140DDFF00207649086007207649086000205A
S113C15010BD75480068401C7349086070477348F7
S113C160006873490968C20302D50122714B1A7031
S113C170420302D50122704B1A70020302D5012238
S113C1806E4B1A706E4A10606E4A1160704710B59B
S113C1904FF4FA7400F0ECF86B4800684FF47A71CD
S113C1A0B0FBF1F0FFF7BDFF7320684908606848F1
S113C1B0006850F00200664908606548006850F461
S113C1C00030634908606248006850F000706049BC
S113C1D008606048006850F008005E4908605D48E7
S113C1E0006850F400605B4908605A48006850F4E5
S113C1F00040584908605848006850F45020564997
S113C200086001205349096860F3461151480160F0
S113C21001205249096860F35A61504801600120C5
S113C2204E49096860F35E714C48016001204C4935
S113C230096860F35A614A48016001204749096866
S113C24060F34A21454801600020404908605FF4DA
S113C25050203B4908600D20FFF73CFF0D20FFF7FD
S113C26043FF0D20FFF72CFF01210D20FFF746FFB0
S113C27031480078012805D14FF47A700400002079
S113C2802D4908702D480078012804D1C8200400E5
S113C29000202A4908702748007801280DD1314828
S113C2A00078002803D101202E49087002E0002004
S113C2B02C49087000201F4908702A48007800287B
S113C2C0D6D0194800686100B0FBF1F201FB1200FE
S113C2D0002808D15FF42130234908605FF0402032
S113C2E022490860C4E710480068B0FBF4F104FB7D
S113C2F011000028BCD15FF421301C4908605FF0B4
S113C300402019490860B3E700E100E080E100E063
S113C31080E200E018ED00E000E400E014E000E05A
S113C32018E000E010E000E0040000100402014006
S113C33014020140090000100A0000100B00001054
S113C3400802014018020140000000106000014092
S113C3501000014048000140000201404400014037
S113C3604C0001400800001098000140900001407A
S113C3700D480E49096811F00101491C90FBF1F0C8
S113C3800B49086070470848094908604720094973
S113C390086006480068400840000449086000201E
S113C3A00449086070470000006CDC02184000403B
S113C3B0000000101440004010B450F8041B79B180
S113C3C00268436812180830DC0744BFA9F101046D
S113C3D0E31852F8044B43F8044B091FF9D1ECE776
S113C3E010BC704710B5074979441831064C7C4499
S113C3F0163404E00A68081D511888470146A14212
S113C400F8D110BD2C0000003C0000004EF688510D
S113C410CEF20001086840F470000860BFF34F8F4B
S113C420BFF36F8F4FF00070E1EE100A7047000009
S113C43089FFFFFF0C00000018010000000000103D
S113C44000000000DFF81000016841F47001016091
S113C450024880470248004788ED00E087C3000097
S113C460A9C4000000F00BF8002801D0FFF7BAFFC0
S113C4700020C046C046FFF78AFE00F002F8012003
S113C480704700F001B800000746384600F002F893
S113C490FBE7000080B5C046C046024A11001820E0
S113C4A0ABBEFBE726000200C046C046FFF7AEFF66
S113C4B0FFF7D8FFFFF7FEBFFFF7FEBFFFF7FEBF92
S113C4C0FFF7FEBFFFF7FEBFFFF7FEBFFFF7FEBF9C
S113C4D0FFF7FEBFFFF7FEBFFFF7FEBFFFF7FEBF8C
S113C4E0FFF7FEBFFFF7FEBFFFF7FEBFFFF7FEBF7C
S113C4F0FFF7FEBFFFF7FEBFFFF7FEBFFFF7FEBF6C
S113C500FFF7FEBFFFF7FEBFFFF7FEBFFFF7FEBF5B
S113C510FFF7FEBFFFF7FEBFFFF7FEBFFFF7FEBF4B
S113C520FFF7FEBFFFF7FEBFFFF7FEBFFFF7FEBF3B
S113C530FFF7FEBFFFF7FEBFFFF7FEBFFFF7FEBF2B
S113C540FFF7FEBFFFF7FEBFFFF7FEBFFFF7FEBF1B
S10FC550006CDC02000000000100000090
S903C4A98F
