S02B0000433A5C55736572735C6D73636872655C446F63756D656E74735C50726F6A656374735C41706F6C6C03
S113C00000FC0510C1C0000071C3000073C3000030
S113C01075C3000077C3000079C30000000000006E
S113C0200000000000000000000000007BC30000CE
S113C0307DC30000000000007FC3000025C2000093
S113C04083C3000083C3000083C3000083C30000D4
S113C05083C3000083C3000083C3000083C30000C4
S113C06083C3000083C3000083C3000083C30000B4
S113C07083C3000083C3000083C3000083C30000A4
S113C08083C3000083C3000083C3000083C3000094
S113C09083C3000083C3000083C3000083C3000084
S113C0A083C3000083C3000083C3000083C3000074
S113C0B083C3000083C3000083C3000083C3000064
S113C0C00F481049104A0023934205D20C680460BB
S113C0D0043304310430F7E70C480D4A00230024EC
S113C0E0934203D2046004330430F9E70948016839
S113C0F0094A114301600948804709480047000084
S113C10000000010A0C300000400000004000010A0
S113C1100400000088ED00E00000F00055C10000BC
S113C12041C2000080B400AF4FF040239B6903F08C
S113C1300103DBB20133054A92FBF3F31A46044BC5
S113C1401A60BD465DF8047B704700BF006CDC02DA
S113C1500000001080B400AF0A4B0B4A1A604FF085
S113C160402347225A614FF04022137E6FF30003AD
S113C17013764FF0402300225A61BD465DF8047BDC
S113C180704700BF00000010006CDC0280B483B074
S113C19000AF03463960FB7197F90730002B0ADBC7
S113C1A00D4997F907303A68D2B25201D2B20B4422
S113C1B083F800230AE00949FB7903F00F03043BE9
S113C1C03A68D2B25201D2B20B441A760C37BD4649
S113C1D05DF8047B704700BF00E100E000ED00E083
S113C1E080B582B000AF78607B68013BB3F1807F9B
S113C1F001D301230FE00A4A7B68013B53604FF0EF
S113C200FF300721FFF7C2FF054B00229A60044B61
S113C21007221A60002318460837BD4680BD00BFB8
S113C22010E000E080B400AF044B1B680133034A04
S113C2301360BD465DF8047B704700BF0400001026
S113C24080B582B000AF4FF4FA737B60FFF76AFFEA
S113C250434B1B68434AA2FB03239B091846FFF781
S113C260BFFF414B73221A663F4B1A6942F0020228
S113C2701A613D4B1A6942F400321A613A4B1A6949
S113C28042F000721A61384B9A6C22F0600242F05C
S113C29020029A64344B5A6C22F0C06242F000725D
S113C2A05A64314B5A6C22F0C04242F000525A6434
S113C2B02D4BDA6C22F0C06242F00072DA642A4B31
S113C2C05A6C22F4C06242F400725A64264B002273
S113C2D01A66254BD3F8803003F48023002B02D157
S113C2E04FF47A737B60204BD3F8803003F400233F
S113C2F0002B01D1C8237B601B4BD3F8803003F49F
S113C3008033002B2AD0194B1B687A685200B3FB88
S113C310F2F102FB01F29B1A002B0AD1124B4FF4EB
S113C3202132C3F89820104B4FF04022C3F89020DC
S113C33014E00E4B1B687A68B3FBF2F2796801FBD8
S113C34002F29B1A002B09D1074B4FF42132C3F898
S113C3509020054B4FF04022C3F89820B9E700BF66
S113C36000000010D34D62100000014004000010D2
S113C370FEE7FEE7FEE7FEE7FEE7FEE7FEE7FEE791
S113C380FEE7FEE700000000A0C30000000000106C
S10BC390040000000400000099
S10BC39828FDFF7F01000000F5
S107C3A0006CDC024B
S113C3A40000000000000000000000000000000085
S113C3B40000000000000000000000000000000075
S113C3C40000000000000000000000000000000065
S113C3D40000000000000000000000000000000055
S903C0C17B
