:020000040000FA
:10C00000680C00102DC2000055C2000057C200008D
:10C0100059C200005BC200005DC2000000000000C9
:10C020000000000000000000000000005FC20000EF
:10C0300061C200000000000063C2000065C2000091
:10C0400067C2000067C2000067C2000067C200004C
:10C0500067C2000067C2000067C2000067C200003C
:10C0600067C2000067C2000067C2000067C200002C
:10C0700067C2000067C2000067C2000067C200001C
:10C0800067C2000067C2000067C2000067C200000C
:10C0900067C2000067C2000067C2000067C20000FC
:10C0A00067C2000067C2000067C2000067C20000EC
:10C0B00067C2000067C2000067C2000067C20000DC
:10C0C00000F002F800F03CF80AA090E8000C82446E
:10C0D0008344AAF10107DA4501D100F031F8AFF24B
:10C0E000090EBAE80F0013F0010F18BFFB1A43F056
:10C0F000010318472C0200004C020000103A24BF34
:10C1000078C878C1FAD8520724BF30C830C144BFBC
:10C1100004680C60704700000023002400250026FE
:10C12000103A28BF78C1FBD8520728BF30C148BF9A
:10C130000B6070471FB500F0EEF81FBD10B510BDC5
:10C1400000F0AFF81146FFF7F5FF00F030F800F00F
:10C15000CDF803B4FFF7F2FF03BC00F0D5F8000000
:10C160004FF0402080690B4900F00100401CB1FBFA
:10C17000F0F00949086070470749064808604FF029
:10C18000402047214161816921F001018161002145
:10C1900041617047006CDC02000000101F4801681C
:10C1A00021F4407101601E49016000207047FFF7D3
:10C1B000F5FF1C487321016650F8B41F41F431317A
:10C1C00040F87019416E41F431314166416821F007
:10C1D000600120314160016821F0C06101F100710E
:10C1E0000160016821F0C04101F100510160016866
:10C1F00021F4C06101F5007101600021C1610221DB
:10C2000009480A0441604260416042604160426006
:10C210004160426041604260F4E7000000800140FC
:10C22000830710000000014000100140DFF84400C7
:10C23000002805D0DFF840100840DFF84010086003
:10C24000DFF83C00016841F4700101600D4880474F
:10C250000D480047FEE7FEE7FEE7FEE7FEE7FEE7E4
:10C26000FEE7FEE7FEE7FEE708480949094A0A4BF0
:10C270007047000000C0000080FFFF1F08ED00E0D5
:10C2800088ED00E079C10000C1C000006800001026
:10C29000680C0010680800106808001070477047AC
:10C2A0007047754600F02CF8AE46050069465346C7
:10C2B00020F00700854618B020B5FFF7D5FFBDE890
:10C2C00020404FF000064FF000074FF000084FF0FD
:10C2D000000B21F00701AC46ACE8C009ACE8C0098E
:10C2E000ACE8C009ACE8C0098D46704710B50446FB
:10C2F000AFF300802046BDE81040FFF72ABF0000E2
:10C30000004870470400001001491820ABBEFEE74A
:10C310002600020070474FF04070E1EE100A7047AF
:10C3200040C300000000001004000000FCC000003A
:10C3300044C3000004000010640C000018C1000099
:04C34000006CDC02AF
:040000050000C0C176
:00000001FF
