:020000040000FA
:10C00000700C0010B1C30000D9C30000DBC30000F6
:10C01000DDC30000DFC30000E1C30000000000003A
:10C02000000000000000000000000000E3C300006A
:10C03000E5C3000000000000E7C30000D5C1000018
:10C04000EBC30000EBC30000EBC30000EBC3000038
:10C05000EBC30000EBC30000EBC30000EBC3000028
:10C06000EBC30000EBC30000EBC30000EBC3000018
:10C07000EBC30000EBC30000E1C10000EBC3000014
:10C08000EBC30000EBC30000EBC30000EBC30000F8
:10C09000EBC30000EBC30000EBC30000EBC30000E8
:10C0A000EBC30000EBC30000EBC30000EBC30000D8
:10C0B000EBC30000EBC30000EBC30000EBC30000C8
:10C0C00000F002F800F03CF80AA090E8000C82446E
:10C0D0008344AAF10107DA4501D100F031F8AFF24B
:10C0E000090EBAE80F0013F0010F18BFFB1A43F056
:10C0F00001031847B0030000D0030000103A24BF2A
:10C1000078C878C1FAD8520724BF30C830C144BFBC
:10C1100004680C60704700000023002400250026FE
:10C12000103A28BF78C1FBD8520728BF30C148BF9A
:10C130000B6070471FB500F0B0F91FBD10B510BD02
:10C1400000F071F91146FFF7F5FF00F063F800F019
:10C150008FF903B4FFF7F2FF03BC00F097F900007A
:10C160004FF04020806900F00100401C0A4991FB1B
:10C17000F0F00A49086070470748084908604720FE
:10C180004FF0402148610846806920F00100886135
:10C190000020486170470000006CDC0200000010C5
:10C1A00010B5002807DA4A07140E764A00F00F038C
:10C1B0001B1FD45403E04A07130E734A135410BDD7
:10C1C000724A1168014400E000BF704A126891424F
:10C1D000FAD170476D480068401C6C490860704790
:10C1E0006B4908686B49D1F80412C1F3405169B139
:10C1F0006949097811B90121674A117066490A78BD
:10C200006449896C62F30F01624A91646049091DB7
:10C2100008607047FFF7A4FF604800684FF47A7128
:10C22000B0FBF1F4601EB0F1807F00D30FE0601E20
:10C230004FF0E021486107214FF0FF30FFF7B0FFDA
:10C2400000204FF0E02188610720086100BF7320C3
:10C25000534908660846C06920F4601000F5801054
:10C26000C8610846C06920F4003000F50030C8619C
:10C270000846C06C20F0C06000F10070C864002067
:10C2800008664848006820F40060C1F8180140487A
:10C29000FC38006820F0380018303E49C1F8080129
:10C2A0000846C06C20F0006000F10060C8640846D9
:10C2B000C06C20F0806000F18060C8640846C06CEB
:10C2C00020F0E07000F54000C8640846C06C20F41F
:10C2D000781000F5C020C8640846806C6FF30F002A
:10C2E000401C88640846806C80B200F180708864CD
:10C2F0002748001F006820F4001000F50010C1F866
:10C3000000020846C06C20F00060C8640846C06C9B
:10C3100020F4803000F58030C8640E200121814077
:10C32000214A430942F8231000BF00BF0121814088
:10C330001E4A430942F8231000BF0121FFF730FFD6
:10C340000E20012181404209920002F1E022C2F850
:10C35000001100BF14E00D480068C0F38800FF28FA
:10C3600008D80A480068C0F38700C0F1FF000A49F6
:10C37000087005E005480068C0F3870006490870AA
:10C38000E9E7000018ED00E000E400E00400001020
:10C3900004820040008000400800001000000010EF
:10C3A000000001401801014080E100E080E200E06F
:10C3B000DFF84400002805D0DFF840100840DFF81F
:10C3C00040100860DFF83C00016841F47001016032
:10C3D0000D4880470D480047FEE7FEE7FEE7FEE711
:10C3E000FEE7FEE7FEE7FEE7FEE7FEE7084809494D
:10C3F000094A0A4B7047000000C0000080FFFF1F81
:10C4000008ED00E088ED00E079C10000C1C0000047
:10C4100070000010700C0010700800107008001000
:10C42000704770477047754600F02CF8AE4605001F
:10C430006946534620F00700854618B020B5FFF73F
:10C44000D5FFBDE820404FF000064FF000074FF049
:10C4500000084FF0000B21F00701AC46ACE8C00922
:10C46000ACE8C009ACE8C009ACE8C0098D4670472B
:10C4700010B50446AFF300802046BDE81040FFF73A
:10C4800068BE0000004870470C00001001491820E9
:10C49000ABBEFEE72600020070474FF04070E1EEB1
:10C4A000100A7047C4C40000000000100C00000017
:10C4B000FCC00000D0C400000C000010640C0000A0
:10C4C00018C10000006CDC02000000000100000048
:040000050000C0C176
:00000001FF
