S02B0000433A5C55736572735C6D73636872655C446F63756D656E74735C50726F6A656374735C41706F6C6C03
S113C00000FC0510C1C0000015C5000017C50000E4
S113C01019C500001BC500001DC50000000000007C
S113C0200000000000000000000000001FC5000028
S113C03021C500000000000023C50000DDC200008F
S113C04027C5000027C5000027C5000027C500003C
S113C05027C5000027C5000027C5000027C500002C
S113C06027C5000027C5000027C5000027C500001C
S113C07027C50000F9C2000027C5000027C500003D
S113C08027C5000027C5000027C5000027C50000FC
S113C09027C5000027C5000027C5000027C50000EC
S113C0A027C5000027C5000027C5000027C50000DC
S113C0B027C5000027C5000027C5000027C50000CC
S113C0C00F481049104A0023934205D20C680460BB
S113C0D0043304310430F7E70C480D4A00230024EC
S113C0E0934203D2046004330430F9E70948016839
S113C0F0094A114301600948804709480047000084
S113C1000000001044C500000800000008000010F2
S113C1100800000088ED00E00000F00055C10000B8
S113C12069C3000080B400AF4FF040239B6903F063
S113C1300103DBB20133054A92FBF3F31A46044BC5
S113C1401A60BD465DF8047B704700BF006CDC02DA
S113C1500000001080B400AF0A4B0B4A1A604FF085
S113C160402347225A614FF04022137E6FF30003AD
S113C17013764FF0402300225A61BD465DF8047BDC
S113C180704700BF00000010006CDC0280B483B074
S113C19000AF0346FB7197F90730002B0BDB08490E
S113C1A097F907305B09FA7902F01F02012000FABF
S113C1B002F241F823200C37BD465DF8047B70473A
S113C1C000E100E080B483B000AF0346FB7197F94F
S113C1D00730002B10DB0B4997F907305B09FA791C
S113C1E002F01F02012000FA02F2203341F823205A
S113C1F0BFF34F8FBFF36F8F0C37BD465DF8047BE1
S113C200704700BF00E100E080B483B000AF034694
S113C210FB7197F90730002B0CDB094997F90730BC
S113C2205B09FA7902F01F02012000FA02F260337E
S113C23041F823200C37BD465DF8047B704700BFEE
S113C24000E100E080B483B000AF03463960FB71C5
S113C25097F90730002B0ADB0D4997F907303A6844
S113C260D2B25201D2B20B4483F800230AE0094946
S113C270FB7903F00F03043B3A68D2B25201D2B205
S113C2800B441A760C37BD465DF8047B704700BF3B
S113C29000E100E000ED00E080B582B000AF78601E
S113C2A07B68013BB3F1807F01D301230FE00A4A8D
S113C2B07B68013B53604FF0FF300721FFF7C2FF5B
S113C2C0054B00229A60044B07221A60002318468B
S113C2D00837BD4680BD00BF10E000E080B400AF69
S113C2E0044B1B680133034A1360BD465DF8047BAD
S113C2F0704700BF0800001080B483B000AF164B35
S113C300D3F804327B60144BD3F814323B607B685F
S113C31003F48033002B02D0104B01221A707B6887
S113C32003F48023002B02D00D4B01221A707B688A
S113C33003F40023002B02D00A4B01221A70064A90
S113C3407B68C2F80832044A3B68C2F818320C37DA
S113C350BD465DF8047B7047000001400C000010EE
S113C3600D0000100E00001080B582B000AF4FF435
S113C370FA737B60FFF7D6FE5E4B1B685E4AA2FB36
S113C38003239B091846FFF787FF5C4B73221A6649
S113C3905A4B1A6942F002021A61584B1A6942F464
S113C3A000321A61554B1A6942F000721A61534BFC
S113C3B09A6C42F008029A64504B9A6C42F4006200
S113C3C09A644E4B9A6C42F400429A644B4A4B4B2B
S113C3D0D3F8003243F45023C2F80032474B9A6C2E
S113C3E022F0600242F020029A64444B5A6C22F01C
S113C3F0C06242F000725A64404B5A6C22F0C04250
S113C40042F000525A643D4BDA6C22F0C06242F0B2
S113C4100072DA64394B5A6C22F4C06242F400723E
S113C4205A64364B00221A66344B4FF45022C3F838
S113C43008220D20FFF7C6FE0D20FFF7E5FE0D20B4
S113C440FFF7A4FE0D200121FFF7FCFE2C4B1B7807
S113C450012B05D14FF47A737B60294B00221A70AB
S113C460284B1B78012B04D1C8237B60254B002269
S113C4701A70254B1B78012B0CD1244B1B78002BF5
S113C4800CBF01230023DBB21A46204B1A701E4B4B
S113C49000221A701D4B1B78002B2AD01C4B1B68E2
S113C4A07A685200B3FBF2F102FB01F29B1A002BF3
S113C4B00AD1124B4FF42132C3F898200F4B4FF09E
S113C4C04022C3F8902014E0114B1B687A68B3FB38
S113C4D0F2F2796801FB02F29B1A002B09D1074B97
S113C4E04FF42132C3F89020044B4FF04022C3F89C
S113C4F09820ABE700000010D34D6210000001400B
S113C5000D0000100E0000100C00001004000010BC
S113C51008000010FEE7FEE7FEE7FEE7FEE7FEE7A1
S113C520FEE7FEE7FEE7FEE70000000044C500006A
S10FC530000000100800000008000000DB
S10BC53C84FBFF7F01000000F5
S10BC544006CDC0201000000A0
S113C54C00000000000000000000000000000000DB
S113C55C00000000000000000000000000000000CB
S113C56C00000000000000000000000000000000BB
S113C57C00000000000000000000000000000000AB
S903C0C17B
