S02B0000433A5C55736572735C6D73636872655C446F63756D656E74735C50726F6A656374735C41706F6C6C03
S113C00000FC0510C1C00000FDC30000FFC3000018
S113C01001C4000003C4000005C4000000000000C7
S113C02000000000000000000000000007C4000041
S113C03009C40000000000000BC400000DC400008F
S113C0400FC400000FC400000FC400000FC40000A0
S113C0500FC400000FC400000FC400000FC4000090
S113C0600FC400000FC400000FC400000FC4000080
S113C0700FC400000FC400000FC400000FC4000070
S113C0800FC400000FC400000FC400000FC4000060
S113C0900FC400000FC400000FC400000FC4000050
S113C0A00FC400000FC400000FC400000FC4000040
S113C0B00FC400000FC400000FC400000FC4000030
S113C0C00F481049104A0023934205D20C680460BB
S113C0D0043304310430F7E70C480D4A00230024EC
S113C0E0934203D2046004330430F9E70948016839
S113C0F0094A114301600948804709480047000084
S113C1000000001060C400000400000004000010DF
S113C1100000000088ED00E00000F00055C10000C0
S113C12059C3000080B400AF4FF040239B6903F073
S113C1300103DBB20133054A92FBF3F31A46044BC5
S113C1401A60BD465DF8047B704700BF006CDC02DA
S113C1500000001080B400AF0A4B0B4A1A604FF085
S113C160402347225A614FF04022137E6FF30003AD
S113C17013764FF0402300225A61BD465DF8047BDC
S113C180704700BF00000010006CDC0280B582B074
S113C19000AF786039602F4A2E4B9B6843F08003D0
S113C1A0936000E000BF2B4B9B699B0803F00103E5
S113C1B0DBB2002BF6D07B6800221A637A68138EF8
S113C1C043F0080313867A68138E012161F3061382
S113C1D013867A68138E6FF3000313867A68138EBE
S113C1E06FF3492313867A68138E6FF3082313863B
S113C1F0FFF798FF78683968174A00F02FF87B68D2
S113C2000022DA627A6892F82C3043F0600382F8F4
S113C2102C307A6892F82C306FF3C30382F82C30F8
S113C2207A6892F82C306FF3410382F82C307A68E4
S113C230138E43F0010313867A68138E43F400735C
S113C24013867A68138E43F4807313860837BD46C9
S113C25080BD00BF0010024000366E0180B48DB076
S113C26000AFF860B9607A60BB681B01FB627A6852
S113C270FB6AB2FBF3F3BB627B689A01FB6AB2FB15
S113C280F3F31A464FF00003C7E90823BB6A9B0186
S113C2901A464FF00003D7E90801821A61EB030341
S113C2A0C7E90623BB697B61BB6A002B00D1FEE7AB
S113C2B0FB68BA6A5A62FB68BA6A5A62FB687A69AE
S113C2C09A623437BD465DF8047B704780B483B00E
S113C2D000AF78600B46FB7000E000BF7B689B6991
S113C2E05B0903F00103DBB2002BF6D1FA787B681B
S113C2F01A600C37BD465DF8047B704780B582B088
S113C30000AF7860396007E03B685A1C3A601B78DC
S113C31078681946FFF7DAFF3B681B78002BF3D1E6
S113C3200837BD4680BD00BF80B485B000AF7860DB
S113C33000E000BF7B689B691B0903F00103DBB2CB
S113C340002BF6D17B681B68FB73FB7B1846143704
S113C350BD465DF8047B704780B582B000AF2248CB
S113C3604FF4E131FFF712FF204B73221A661F4B83
S113C3705A6922F460125A611C4B5A6942F4003221
S113C3805A611A4B9A6C22F0C06242F000729A64AD
S113C390164B5A6922F060525A61144B5A6942F0A2
S113C3A000725A61114B9A6C22F0C0429A640F4B8E
S113C3B000221A660C480E49FFF7A0FF0A480D49EF
S113C3C0FFF79CFF08480C49FFF798FF0648FFF762
S113C3D0ABFF0346FB71FB79002B04D0FB790248C9
S113C3E01946FFF773FFF1E700C001400000014068
S113C3F010C4000014C4000024C40000FEE7FEE7DB
S113C400FEE7FEE7FEE7FEE7FEE7FEE7FEE7FEE700
S113C4100D0A000048656C6C6F20576F726C6421C4
S113C4200D0A00005479706564207465787420776F
S113C430696C6C206265206563686F65642E2E2EBE
S113C4400D0A00000000000060C40000000000109D
S10BC4500400000000000000DC
S10BC45868FCFF7F01000000F5
S107C460006CDC028A
S113C46400000000000000000000000000000000C4
S113C47400000000000000000000000000000000B4
S113C48400000000000000000000000000000000A4
S113C4940000000000000000000000000000000094
S903C0C17B
