S01C0000616D6133626576625F70776D5F6578616D706C652E7372656309
S113C00010040010FDC300006DC4000071C40000E2
S113C01075C4000079C400007DC400000000000065
S113C02000000000000000000000000081C40000C7
S113C03085C400000000000089C4000053C1000052
S113C0408DC4000091C4000095C4000099C4000090
S113C0509DC40000A1C40000A5C40000A9C4000040
S113C060ADC40000B1C40000B5C40000B9C40000F0
S113C070BDC40000C1C400005FC10000C5C400000D
S113C080C9C40000CDC40000D1C40000D5C4000060
S113C090D9C4000005C50000DDC40000E1C40000EF
S113C0A0E5C40000E9C40000EDC40000F1C40000D0
S113C0B0F5C40000F9C40000FDC4000001C500007F
S113C0C0012110F01F029140824A40B2430942F814
S113C0D023107047012110F01F0291407E4A40B2A4
S113C0E0430942F823107047012110F01F029140C8
S113C0F07A4A40B2430942F82310704710B440B260
S113C100002808D54A01764B40B210F00F04E3181A
S113C11003F8042C03E04A01724B40B2C25410BC31
S113C120704710B50400601EB0F1807F01D3012078
S113C1300EE0601E6C49086007215FF0FF30FFF7D6
S113C140DDFF002069490860072069490860002074
S113C15010BD68480068401C66490860704766481E
S113C160006865490968C1F3405100290FD063494B
S113C1700978002902D10121604A117060490968D7
S113C180090C09045D4A127811435D4A11605D4946
S113C1900860704780B500F0C7F85B4800684FF44A
S113C1A07A71B0FBF1F0FFF7BCFF732057490860C8
S113C1B002205749096860F3D54155480160544845
S113C1C0006850F400305249086001205149096860
S113C1D060F35A614F48016000204C4908604E48A2
S113C1E0006830F400604C49086003204B4909683A
S113C1F060F3C501494801604948006850F0006097
S113C200474908604648006850F080604449086027
S113C21003204349096860F39851414801600320B1
S113C2203F49096860F355413D48016001203449A4
S113C230096860F30F01324801604FF4807030499F
S113C240096860F31F412E4801603648006850F4C5
S113C2500010344908603248006830F0006030490A
S113C26008602F48006850F480302D4908600E2083
S113C270FFF730FF0E20FFF737FF01210E20FFF7F5
S113C2803DFF0E20FFF71CFF1A48006880084FF49A
S113C2900071B0FBF1F202FB1102FF2A0DD8154820
S113C2A0006880084FF48071B0FBF1F202FB1102C8
S113C2B0D2F1FF0011490870E6E70E4800688008D3
S113C2C04FF48071B0FBF1F202FB11020B480270D3
S113C2D0DAE7000000E100E080E100E080E200E055
S113C2E018ED00E000E400E014E000E018E000E0F5
S113C2F010E000E004000010048200400800001078
S113C30048800040088200400000001060000140A6
S113C3101C0001404C00014018010140088100400C
S113C3204C800040008200400D480E49096811F01D
S113C3300101491C90FBF1F00B4908607047084863
S113C3400949086047200949086006480068400810
S113C3504000044908600020044908607047000058
S113C360006CDC0218400040000000101440004043
S113C37010B450F8041B79B10268436812180830ED
S113C380DC0744BFA9F10104E31852F8044B43F855
S113C390044B091FF9D1ECE710BC704710B50749ED
S113C3A079441831064C7C44163404E00A68081DAC
S113C3B0511888470146A142F8D110BD2C00000055
S113C3C03C0000004EF68851CEF20001086840F4AB
S113C3D070000860BFF34F8FBFF36F8F4FF0007092
S113C3E0E1EE100A7047000089FFFFFF0C00000017
S113C3F0180100000000001000000000DFF8100029
S113C400016841F470010160024880470248004716
S113C41088ED00E03FC3000061C4000000F00BF8A9
S113C420002801D0FFF7BAFF0020C046C046FFF73E
S113C430B1FE00F002F80120704700F001B80000DE
S113C4400746384600F002F8FBE7000080B5C04616
S113C450C046024A11001820ABBEFBE726000200CA
S113C460C046C046FFF7AEFFFFF7D8FFFFF7FEBF99
S113C470FFF7FEBFFFF7FEBFFFF7FEBFFFF7FEBFEC
S113C480FFF7FEBFFFF7FEBFFFF7FEBFFFF7FEBFDC
S113C490FFF7FEBFFFF7FEBFFFF7FEBFFFF7FEBFCC
S113C4A0FFF7FEBFFFF7FEBFFFF7FEBFFFF7FEBFBC
S113C4B0FFF7FEBFFFF7FEBFFFF7FEBFFFF7FEBFAC
S113C4C0FFF7FEBFFFF7FEBFFFF7FEBFFFF7FEBF9C
S113C4D0FFF7FEBFFFF7FEBFFFF7FEBFFFF7FEBF8C
S113C4E0FFF7FEBFFFF7FEBFFFF7FEBFFFF7FEBF7C
S113C4F0FFF7FEBFFFF7FEBFFFF7FEBFFFF7FEBF6C
S113C500FFF7FEBFFFF7FEBF006CDC020000000077
S107C5100100000022
S903C461D7
