S02B0000433A5C55736572735C6D73636872655C446F63756D656E74735C50726F6A656374735C41706F6C6C03
S113C00000FC0510C1C00000C5C40000C7C4000086
S113C010C9C40000CBC40000CDC40000000000006F
S113C020000000000000000000000000CFC4000079
S113C030D1C4000000000000D3C4000011C30000FC
S113C040D7C40000D7C40000D7C40000D7C4000080
S113C050D7C40000D7C40000D7C40000D7C4000070
S113C060D7C40000D7C40000D7C40000D7C4000060
S113C070D7C40000D7C400002DC30000D7C40000FB
S113C080D7C40000D7C40000D7C40000D7C4000040
S113C090D7C40000D7C40000D7C40000D7C4000030
S113C0A0D7C40000D7C40000D7C40000D7C4000020
S113C0B0D7C40000D7C40000D7C40000D7C4000010
S113C0C00F481049104A0023934205D20C680460BB
S113C0D0043304310430F7E70C480D4A00230024EC
S113C0E0934203D2046004330430F9E70948016839
S113C0F0094A114301600948804709480047000084
S113C10000000010F4C40000080000000800001043
S113C1100400000088ED00E00000F00055C10000BC
S113C1208DC3000080B400AF4FF040239B6903F03F
S113C1300103DBB20133054A92FBF3F31A46044BC5
S113C1401A60BD465DF8047B704700BF006CDC02DA
S113C1500000001080B400AF0A4B0B4A1A604FF085
S113C160402347225A614FF04022137E6FF30003AD
S113C17013764FF0402300225A61BD465DF8047BDC
S113C180704700BF00000010006CDC0280B483B074
S113C19000AF0346FB7197F90730002B0BDB08490E
S113C1A097F907305B09FA7902F01F02012000FABF
S113C1B002F241F823200C37BD465DF8047B70473A
S113C1C000E100E080B483B000AF0346FB7197F94F
S113C1D00730002B10DB0B4997F907305B09FA791C
S113C1E002F01F02012000FA02F2203341F823205A
S113C1F0BFF34F8FBFF36F8F0C37BD465DF8047BE1
S113C200704700BF00E100E080B483B000AF034694
S113C210FB7197F90730002B0CDB094997F90730BC
S113C2205B09FA7902F01F02012000FA02F260337E
S113C23041F823200C37BD465DF8047B704700BFEE
S113C24000E100E080B483B000AF03463960FB71C5
S113C25097F90730002B0ADB0D4997F907303A6844
S113C260D2B25201D2B20B4483F800230AE0094946
S113C270FB7903F00F03043B3A68D2B25201D2B205
S113C2800B441A760C37BD465DF8047B704700BF3B
S113C29000E100E000ED00E080B582B000AF78601E
S113C2A07B68013BB3F1807F01D301230FE00A4A8D
S113C2B07B68013B53604FF0FF300721FFF7C2FF5B
S113C2C0054B00229A60044B07221A60002318468B
S113C2D00837BD4680BD00BF10E000E080B485B0E3
S113C2E000AF7860094B1B68FB60FA687B681344F5
S113C2F0FB6000E000BF054B1B68FA689A42F9D165
S113C3001437BD465DF8047B704700BF0800001079
S113C31080B400AF044B1B680133034A1360BD466D
S113C3205DF8047B704700BF0800001080B483B040
S113C33000AF144BD3F804327B60124BD3F80432B1
S113C3405B0D03F00103DBB2012B12D10E4B1B7802
S113C350DBB2002B02D10C4B01221A70094A0A4BA2
S113C3601B78DBB29BB299B2936C1B0C1B040B437E
S113C3709364044A7B68C2F808320C37BD465DF802
S113C380047B7047008000400400001080B500AFBB
S113C390FFF7C8FE454B1B68454AA2FB03239B09D4
S113C3A01846FFF779FF434B73221A66414BDA694B
S113C3B022F4601242F48012DA613E4BDA6942F4EC
S113C3C00032DA613B4BDA6C22F0C06242F0007258
S113C3D0DA64384B00221A66364BD3F8182122F45B
S113C3E00062C3F81821344BD3F8082122F0380234
S113C3F042F01802C3F808212F4BDA6C42F00062B5
S113C400DA642D4BDA6C42F08062DA642A4BDA6C1F
S113C41022F0E07242F44002DA64274BDA6C22F430
S113C420781242F4C022DA64234A936C1B0C1B0476
S113C43043F001039364204B9A6C92B242F08072F1
S113C4409A641D4BD3F8002242F40012C3F8002270
S113C450194BDA6C22F00062DA64174BDA6C42F49E
S113C4608032DA640E20FFF7ADFE0E20FFF7CCFE1B
S113C4700E200121FFF7E6FE0E20FFF787FE0F4B8B
S113C4801B689B08C3F30803FF2B08D80B4B1B68DE
S113C4909B08DBB2DB43DAB2094B1A7005E0074BA9
S113C4A01B689B08DAB2064B1A70E8E7000000101C
S113C4B0D34D6210000001400080004008000010CD
S113C4C004000010FEE7FEE7FEE7FEE7FEE7FEE7F6
S113C4D0FEE7FEE7FEE7FEE700000000F4C400000C
S10FC4E000000010080000000400000030
S10BC4ECD4FBFF7F01000000F6
S10BC4F4006CDC0201000000F1
S113C4FC000000000000000000000000000000002C
S113C50C000000000000000000000000000000001B
S113C51C000000000000000000000000000000000B
S113C52C00000000000000000000000000000000FB
S903C0C17B
