:020000040000FA
:10C00000680C001001C3000029C300002BC300000E
:10C010002DC300002FC3000031C30000000000004A
:10C0200000000000000000000000000033C300001A
:10C0300035C300000000000037C30000A1C10000AC
:10C040003BC300003BC300003BC300003BC30000F8
:10C050003BC300003BC300003BC300003BC30000E8
:10C060003BC300003BC300003BC300003BC30000D8
:10C070003BC300003BC300003BC300003BC30000C8
:10C080003BC300003BC300003BC300003BC30000B8
:10C090003BC300003BC300003BC300003BC30000A8
:10C0A0003BC300003BC300003BC300003BC3000098
:10C0B0003BC300003BC300003BC300003BC3000088
:10C0C00000F002F800F03CF80AA090E8000C82446E
:10C0D0008344AAF10107DA4501D100F031F8AFF24B
:10C0E000090EBAE80F0013F0010F18BFFB1A43F056
:10C0F000010318470003000020030000103A24BF8A
:10C1000078C878C1FAD8520724BF30C830C144BFBC
:10C1100004680C60704700000023002400250026FE
:10C12000103A28BF78C1FBD8520728BF30C148BF9A
:10C130000B6070471FB500F058F91FBD10B510BD5A
:10C1400000F019F91146FFF7F5FF00F02FF800F0A5
:10C1500037F903B4FFF7F2FF03BC00F03FF900002A
:10C160004FF04020806900F00100401C0A4991FB1B
:10C17000F0F00A49086070470748084908604720FE
:10C180004FF0402148610846806920F00100886135
:10C190000020486170470000006CDC0200000010C5
:10C1A00052480068401C5149086070474FF4FA74C7
:10C1B000FFF7D6FF4E4800686200B0FBF2F1481E60
:10C1C000B0F1807F00D31BE0481E4FF0E0225061A9
:10C1D00050170722002807DA53071E0E454B00F0C0
:10C1E0000F052D1F5E5503E053071D0E424B1D54D6
:10C1F00000BF00204FF0E02290610720106100BFD7
:10C2000073203E4908660846006920F00200801C41
:10C2100008610846006920F4003000F5003008612C
:10C220000846006920F0007000F1007008610846BF
:10C23000806C20F06000203088640846406C20F05C
:10C24000C06000F1007048640846406C20F0C040B7
:10C2500000F1005048640846C06C20F0C06000F156
:10C260000070C8640846406C20F4C06000F500709F
:10C2700048640020086638E020488030006800F4F8
:10C28000802008B94FF47A741C488030006800F4AC
:10C29000002000B9C82419488030006800F48030BC
:10C2A00018B3600011490968B1FBF0F200FB1210ED
:10C2B00050B94FF421301149983108604FF04020B7
:10C2C0000E49C1F8900010E008480068B0FBF4F196
:10C2D00004FB110048B94FF421300849903108603F
:10C2E0004FF040200549C1F89800C5E70400001050
:10C2F0000000001018ED00E000E400E00000014044
:10C30000DFF84400002805D0DFF840100840DFF8CF
:10C3100040100860DFF83C00016841F470010160E2
:10C320000D4880470D480047FEE7FEE7FEE7FEE7C1
:10C33000FEE7FEE7FEE7FEE7FEE7FEE708480949FD
:10C34000094A0A4B7047000000C0000080FFFF1F31
:10C3500008ED00E088ED00E079C10000C1C00000F8
:10C3600068000010680C00106808001068080010D1
:10C37000704770477047754600F02CF8AE460500D0
:10C380006946534620F00700854618B020B5FFF7F0
:10C39000D5FFBDE820404FF000064FF000074FF0FA
:10C3A00000084FF0000B21F00701AC46ACE8C009D3
:10C3B000ACE8C009ACE8C009ACE8C0098D467047DC
:10C3C00010B50446AFF300802046BDE81040FFF7EB
:10C3D000C0BE000000487047080000100149182046
:10C3E000ABBEFEE72600020070474FF04070E1EE62
:10C3F000100A704714C4000000000010080000007C
:10C40000FCC000001CC4000008000010600C00000C
:0CC4100018C10000006CDC0200000000FD
:040000050000C0C176
:00000001FF
